{
  "_format": "hh-sol-artifact-1",
  "contractName": "RecoveryContractPassword",
  "sourceName": "contracts/ethereum/RecoveryContractPassword.sol",
  "abi": [
    {
      "inputs": [
        {
          "internalType": "uint256",
          "name": "_hashedPassword",
          "type": "uint256"
        },
        {
          "internalType": "uint256",
          "name": "_minBlocks",
          "type": "uint256"
        },
        {
          "internalType": "address",
          "name": "_gatewayContract",
          "type": "address"
        },
        {
          "internalType": "address",
          "name": "_EOA",
          "type": "address"
        }
      ],
      "stateMutability": "nonpayable",
      "type": "constructor"
    },
    {
      "inputs": [],
      "name": "EOA",
      "outputs": [
        {
          "internalType": "address",
          "name": "",
          "type": "address"
        }
      ],
      "stateMutability": "view",
      "type": "function"
    },
    {
      "inputs": [
        {
          "internalType": "uint256",
          "name": "blocks",
          "type": "uint256"
        },
        {
          "internalType": "bytes",
          "name": "proof",
          "type": "bytes"
        },
        {
          "internalType": "address",
          "name": "_recipient",
          "type": "address"
        }
      ],
      "name": "activateRecovery",
      "outputs": [
        {
          "internalType": "address",
          "name": "",
          "type": "address"
        },
        {
          "internalType": "address",
          "name": "",
          "type": "address"
        },
        {
          "internalType": "address",
          "name": "",
          "type": "address"
        }
      ],
      "stateMutability": "nonpayable",
      "type": "function"
    },
    {
      "inputs": [
        {
          "internalType": "uint256",
          "name": "blocks",
          "type": "uint256"
        }
      ],
      "name": "activateRecovery",
      "outputs": [
        {
          "internalType": "address",
          "name": "",
          "type": "address"
        },
        {
          "internalType": "address",
          "name": "",
          "type": "address"
        },
        {
          "internalType": "address",
          "name": "",
          "type": "address"
        }
      ],
      "stateMutability": "nonpayable",
      "type": "function"
    },
    {
      "inputs": [
        {
          "internalType": "address[]",
          "name": "erc20contracts",
          "type": "address[]"
        },
        {
          "internalType": "uint256[]",
          "name": "amounts",
          "type": "uint256[]"
        }
      ],
      "name": "claimAssets",
      "outputs": [],
      "stateMutability": "nonpayable",
      "type": "function"
    },
    {
      "inputs": [],
      "name": "gatewayContract",
      "outputs": [
        {
          "internalType": "address",
          "name": "",
          "type": "address"
        }
      ],
      "stateMutability": "view",
      "type": "function"
    },
    {
      "inputs": [],
      "name": "hashedPassword",
      "outputs": [
        {
          "internalType": "uint256",
          "name": "",
          "type": "uint256"
        }
      ],
      "stateMutability": "view",
      "type": "function"
    },
    {
      "inputs": [],
      "name": "isActive",
      "outputs": [
        {
          "internalType": "bool",
          "name": "",
          "type": "bool"
        }
      ],
      "stateMutability": "view",
      "type": "function"
    },
    {
      "inputs": [],
      "name": "minBlocks",
      "outputs": [
        {
          "internalType": "uint256",
          "name": "",
          "type": "uint256"
        }
      ],
      "stateMutability": "view",
      "type": "function"
    },
    {
      "inputs": [],
      "name": "recipient",
      "outputs": [
        {
          "internalType": "address",
          "name": "",
          "type": "address"
        }
      ],
      "stateMutability": "view",
      "type": "function"
    },
    {
      "inputs": [
        {
          "internalType": "bytes",
          "name": "proof",
          "type": "bytes"
        },
        {
          "internalType": "uint256[]",
          "name": "pubSignals",
          "type": "uint256[]"
        }
      ],
      "name": "verifyProof",
      "outputs": [
        {
          "internalType": "bool",
          "name": "",
          "type": "bool"
        }
      ],
      "stateMutability": "view",
      "type": "function"
    },
    {
      "inputs": [
        {
          "internalType": "bytes",
          "name": "proof",
          "type": "bytes"
        },
        {
          "internalType": "address",
          "name": "_recipient",
          "type": "address"
        }
      ],
      "name": "verifyZkProof",
      "outputs": [
        {
          "internalType": "bool",
          "name": "isValid",
          "type": "bool"
        }
      ],
      "stateMutability": "view",
      "type": "function"
    }
  ],
  "bytecode": "0x60806040526004805460ff191690553480156200001b57600080fd5b506040516200205d3803806200205d8339810160408190526200003e916200009d565b600080546001600160a01b03199081169091556001805482166001600160a01b03938416179055600393909355600280549093169116179055600555620000e8565b80516001600160a01b03811681146200009857600080fd5b919050565b60008060008060808587031215620000b457600080fd5b8451935060208501519250620000cd6040860162000080565b9150620000dd6060860162000080565b905092959194509250565b611f6580620000f86000396000f3fe608060405234801561001057600080fd5b50600436106100a95760003560e01c80636af39aa3116100715780636af39aa31461016257806373ff5121146101755780637d7be5a91461018a5780637dc5186f1461019d578063eb0cde1d146101b0578063ff21d1e5146101c357600080fd5b80631e8e1e13146100ae57806322f3e2d4146100d6578063457ceb28146100e3578063477ff009146100fa57806366d003ac14610137575b600080fd5b6100c16100bc366004611b40565b6101cc565b60405190151581526020015b60405180910390f35b6004546100c19060ff1681565b6100ec60055481565b6040519081526020016100cd565b61010d610108366004611c5d565b611531565b604080516001600160a01b03948516815292841660208401529216918101919091526060016100cd565b60005461014a906001600160a01b031681565b6040516001600160a01b0390911681526020016100cd565b61010d610170366004611cbb565b61168c565b610188610183366004611d19565b611775565b005b6100c1610198366004611d85565b61193c565b60015461014a906001600160a01b031681565b60025461014a906001600160a01b031681565b6100ec60035481565b60006114c4565b600080600184846000805b82156102005750929381830585810290910393509091818302900390816101de565b505050600181111561021157600080fd5b5050600081121561021f5783015b9392505050565b60405181602084028301815160208301925060005b8284101561026c57818552600080516020611f1083398151915284518309915060208501945060208401935061023b565b610284600080516020611f10833981519152836101d3565b91506020850394506020840393508592505b828411156102db57600080516020611f10833981519152855183099050600080516020611f1083398151915284518309818552601f1995860195909401939150610296565b5090915250505050565b600080516020611f108339815191528110610304576000805260206000f35b50565b61032081511461031b576000805260206000f35b6103296102608201516102e5565b6103376102808201516102e5565b6103456102a08201516102e5565b6103536102c08201516102e5565b6103616102e08201516102e5565b61036f6103008201516102e5565b6103046103208201516102e5565b60008060208501516102e085015260408501516103008501526020830151610320850152602080018301516103408501526040602001830151610360850152606060200183015161038085015260806020018301516103a085015260a06020018301516103c0850152600080516020611f108339815191526101006102e0860120069050806020850152600080516020611f10833981519152602080860120066040850152600080516020611f10833981519152604060e0850120066000850152600080516020611f1083398151915260c0610120850120069150816060850152600080516020611f1083398151915282820960a085015250600080516020611f108339815191528182099050600080516020611f108339815191528182099050600080516020611f108339815191528182099050600080516020611f108339815191528182099050600080516020611f108339815191528182099050600080516020611f108339815191528182099050600080516020611f108339815191528182099050600080516020611f108339815191528182099050600080516020611f108339815191528182099050600080516020611f108339815191528182099050600080516020611f108339815191528182099050600080516020611f108339815191528182099050806080840152600080516020611f108339815191528060018303010690508061026084015280610280840152600080516020611f1083398151915260e0610260840120068060c0850152600080516020611f1083398151915281820991508160e0850152600080516020611f10833981519152818309915081610100850152600080516020611f10833981519152818309915081610120850152600080516020611f10833981519152818309915081610140850152600080516020611f10833981519152818309610160850152505060806101e09190910120600080516020611f1083398151915290066101809091015250565b6001600080516020611f1083398151915280600080516020611f10833981519152836060860151030106611000096102a0830152600080516020611f108339815191527f0931d596de2fd10f01ddd073fd5a90a976f169c76f039bb91c4775720042d43a82099050600080516020611f1083398151915280600080516020611f10833981519152836060860151030106611000096102c083015261070360036102808401610226565b61026082015160019150600080516020611f10833981519152816102a0850151096102a0840152600080516020611f108339815191527f0931d596de2fd10f01ddd073fd5a90a976f169c76f039bb91c4775720042d43a83099150600080516020611f1083398151915280826102c08601510983096102c0840152505050565b6000600080516020611f1083398151915280600080516020611f1083398151915260208601516102a086015109830301069050600080516020611f1083398151915280600080516020611f1083398151915260408601516102c086015109830301069050806101a0830152505050565b6000806000600080516020611f108339815191526101a0860151610320860151089250600080516020611f1083398151915260208601516102c0860151099150600080516020611f1083398151915261026085015183089150600080516020611f10833981519152604086015183089150600080516020611f1083398151915260208601516102e0860151099050600080516020611f1083398151915261028085015182089050600080516020611f10833981519152604086015182089050600080516020611f108339815191528183099150600080516020611f1083398151915260408601516102a0860151089050600080516020611f108339815191528183099150600080516020611f1083398151915261030085015183099150600080516020611f10833981519152600086015183099150600080516020611f1083398151915260008601516102a0870151099050600080516020611f10833981519152600086015182099050600080516020611f10833981519152818308915050600080516020611f1083398151915281600080516020611f1083398151915284010306915050600080516020611f1083398151915261028084015182099050806101c0840152505050565b6040518151815260208201516020820152825160408201526020830151606082015260408260808360066107d05a03fa9050806109fe576000805260206000f35b505050565b6000604051835181526020840151602082015284604082015260408160608360076107d05a03fa915081610a3b576000805260206000f35b825160408201526020830151606082015260408360808360066107d05a03fa91505080610a6c576000805260206000f35b50505050565b600060405183815284602082015285604082015260408160608360076107d05a03fa915081610aa5576000805260206000f35b825160408201526020830151606082015260408360808360066107d05a03fa91505080610ad6576000805260206000f35b5050505050565b600060405183815284602082015285604082015260408360608360076107d05a03fa91505080610ad6576000805260206000f35b6101e08201610b2e6101e083018281518152602091820151910152565b6109fe610180840151610220840183610a03565b6000806102208401600080516020611f1083398151915260c0860151610260860151099250610bb3837f2eb67c0ca20735dd9728a7dd7bab037c0f3ef5ec3cb09a40ffd6dc72b3f2b0cb7f1cf4b31736d4c025d29d0683622a4eb8234f62b7140d7b1b1c45cf1d5251896c84610add565b600080516020611f1083398151915261028085015184099250610c18837f2af3a314ddbf93a88a6a450430d5528e2d33cde0a8f21622692115a8667e8e457f2a2057ca32341b223996128794d51936a29d35a28876903933a07d09004e659784610a72565b600080516020611f1083398151915260c0860151610280860151099250610c81837f2bb3c6f9aeea2252ff4a3691ea4129d5bebcaae30a8141cbf0b784673d4265177f2edca24b060dbb91b31b0f920740b8c112fdd5c5d95b9df7657afc337811b33a84610a72565b600080516020611f1083398151915260c08601516102a0860151099250610cea837f28d73857830aed4f942d4cb6ff6349b1c4c246200e813d9d3144ed12ce6574157f23847c7c97656804415fa84053faeaa1222ad9610e187214219177de0ccf44f584610a72565b60c08501519250610d3d837f2f666ac08dff772c72e8412abb33c600290d691fd25cbe449743040e8256a3d87f14b527b8f772f3926e0c9690254b0866981d5097dbcbc2b466b953d00ce6a9d284610a72565b600080516020611f1083398151915260a0860151610260860151089250600080516020611f10833981519152604086015184089250600080516020611f1083398151915260a08601516002099150600080516020611f1083398151915261028085015183089150600080516020611f10833981519152604086015183089150600080516020611f108339815191528284099250600080516020611f1083398151915260a08601516003099150600080516020611f108339815191526102a085015183089150600080516020611f10833981519152604086015183089150600080516020611f108339815191528284099250600080516020611f10833981519152600086015184099250600080516020611f1083398151915260c086015184099250600080516020611f1083398151915260008601516102a0870151099150600080516020611f10833981519152600086015183099150600080516020611f1083398151915260c086015183099150600080516020611f108339815191528284089250600080516020611f1083398151915261018086015184089250610ee68360e0860183610a03565b600080516020611f108339815191526102c08501516020870151099250600080516020611f1083398151915261026085015184089250600080516020611f10833981519152604086015184089250600080516020611f108339815191526102e08501516020870151099150600080516020611f1083398151915261028085015183089150600080516020611f10833981519152604086015183089150600080516020611f108339815191528284099250600080516020611f10833981519152600086015184099250600080516020611f1083398151915260c086015184099250600080516020611f10833981519152602086015184099250600080516020611f108339815191526103008501518409600080516020611f10833981519152908103069250611056837f156ef9e504c058d1a6609cf2d8bc7c7147e7d13610ec904aab2247a1e765b99a7f176b7a29cff0ef08e09d2c72a5db37a015d3914a738a302b24fe643f8cacdc3f84610a72565b6110646101208501826109bd565b6080850151925061107a83610160860183610a03565b600080516020611f10833981519152838409925061109d836101a0860183610a03565b6110af60e08601516020860183610a03565b6110c26101008601516060860183610a03565b6110d561012086015160a0860183610a03565b6111266101408601517f173bdb25d94f66dd9586499787046f1052127b95b108c7a4d7beee6ac7e4593f7f04b85ee2b6af218577d8a2e56ab4dc054287e444b90fd652bc24f7046366e8a984610a72565b6111776101608601517f2e86ff0322609f7543013d57e50324e6f3a4f6a5542a15d9f788ff53623758b77f1532f5d43291ffaa96f15c0640dafc17842db2b8c602b94d2dcaac0418524e6e84610a72565b6101c08501519250600080516020611f108339815191528060c08701516103208701510984089250600080516020611f108339815191528060e08701516102608701510984089250600080516020611f10833981519152806101008701516102808701510984089250600080516020611f10833981519152806101208701516102a08701510984089250600080516020611f10833981519152806101408701516102c08701510984089250600080516020611f10833981519152806101608701516102e08701510984089250600080516020611f1083398151915280610180870151610300870151098408600080516020611f10833981519152908103069250611285836002600184610a72565b6060850151925061129b836101e0860183610a03565b600080516020611f108339815191526060860151610180870151099250600080516020611f108339815191527f0931d596de2fd10f01ddd073fd5a90a976f169c76f039bb91c4775720042d43a84099250610ad683610220860183610a03565b60006040516101e0830151815260206101e08401015160208201527f26186a2d65ee4d2f9c9a5b91f86597d35f192cd120caf7e935d8443d1938e23d60408201527f30441fd1b5d3370482c42152a8899027716989a6996c2535bc9f7fee8aaef79e60608201527f1970ea81dd6992adfbc571effb03503adbbb6a857f578403c6c40e22d65b3c0260808201527f054793348f12c0cf5622c340573cb277586319de359ab9389778f689786b1e4860a082015261022083015160c08201526020610220840101517f30644e72e131a029b85045b68181585d97816a916871ca8d3c208c16d87cfd47817f30644e72e131a029b85045b68181585d97816a916871ca8d3c208c16d87cfd47030690508060e0830152507f198e9393920d483a7260bfb731fb5d25f1aa493335a9e71297e485b7aef312c26101008201527f1800deef121f1e76426a00665e5c4479674322d4f75edadd46debd5cd992f6ed6101208201527f090689d0585ff075ec9e99ad690c3395bc4b313370b38ef355acdadcd122975b6101408201527f12c85ea5db8c6deb4aab71808dcb408fe3d1e7690c43d37b4ce6cc0166fa7daa6101608201526020816101808360086107d05a03fa90511692915050565b6040516102e081016040526114d884610307565b6114e383828661037d565b6114ec8161065a565b6114f68382610783565b61150081856107f3565b61150a8185610b11565b6115148185610b42565b61151d816112fb565b6102e0820360405280600052505060206000f35b600254600090819081906001600160a01b0316331461156b5760405162461bcd60e51b815260040161156290611dd9565b60405180910390fd5b6001600160a01b0384166115b05760405162461bcd60e51b815260206004820152600c60248201526b4e756c6c206164647265737360a01b6044820152606401611562565b60045460ff16156115f45760405162461bcd60e51b815260206004820152600e60248201526d416c72656164792061637469766560901b6044820152606401611562565b60035487101561163d5760405162461bcd60e51b8152602060048201526014602482015273125b9858dd1a5d9a5d1e481d1bdbc81cda1bdc9d60621b6044820152606401611562565b61164886868661193c565b505060048054600160ff199091168117909155600080546001600160a01b0319166001600160a01b0386811691909117909155905416963096509294509192505050565b600254600090819081906001600160a01b031633146116bd5760405162461bcd60e51b815260040161156290611dd9565b60045460ff16156117015760405162461bcd60e51b815260206004820152600e60248201526d416c72656164792061637469766560901b6044820152606401611562565b60035484101561174a5760405162461bcd60e51b8152602060048201526014602482015273125b9858dd1a5d9a5d1e481d1bdbc81cda1bdc9d60621b6044820152606401611562565b50506004805460ff19166001908117909155546000546001600160a01b039182169430945091169150565b6000546001600160a01b031633146117c05760405162461bcd60e51b815260206004820152600e60248201526d13db9b1e481c9958da5c1a595b9d60921b6044820152606401611562565b60045460ff166117ff5760405162461bcd60e51b815260206004820152600a6024820152694e6f742061637469766560b01b6044820152606401611562565b82811461183d5760405162461bcd60e51b815260206004820152600c60248201526b0aee4dedcce40d8cadccee8d60a31b6044820152606401611562565b60005b83811015610ad657600085858381811061185c5761185c611e1a565b90506020020160208101906118719190611e30565b9050600084848481811061188757611887611e1a565b6001546000546040516323b872dd60e01b81526001600160a01b03928316600482015290821660248201526020929092029390930135604482018190529350918416916323b872dd9150606401602060405180830381600087803b1580156118ee57600080fd5b505af1158015611902573d6000803e3d6000fd5b505050506040513d601f19601f820116820180604052508101906119269190611e4b565b505050808061193490611e6d565b915050611840565b604080516002808252606082018352600092839291906020830190803683370190505090506005548160008151811061197757611977611e1a565b602002602001018181525050826001600160a01b0316816001815181106119a0576119a0611e1a565b6020908102919091010152604051631e8e1e1360e01b81523090631e8e1e13906119d290889088908690600401611e96565b60206040518083038186803b1580156119ea57600080fd5b505afa1580156119fe573d6000803e3d6000fd5b505050506040513d601f19601f82011682018060405250810190611a229190611e4b565b611a6e5760405162461bcd60e51b815260206004820152601960248201527f50726f6f6620766572696669636174696f6e206661696c6564000000000000006044820152606401611562565b506001949350505050565b634e487b7160e01b600052604160045260246000fd5b604051601f8201601f1916810167ffffffffffffffff81118282101715611ab857611ab8611a79565b604052919050565b600082601f830112611ad157600080fd5b8135602067ffffffffffffffff821115611aed57611aed611a79565b8160051b611afc828201611a8f565b9283528481018201928281019087851115611b1657600080fd5b83870192505b84831015611b3557823582529183019190830190611b1c565b979650505050505050565b60008060408385031215611b5357600080fd5b823567ffffffffffffffff80821115611b6b57600080fd5b818501915085601f830112611b7f57600080fd5b8135602082821115611b9357611b93611a79565b611ba5601f8301601f19168201611a8f565b8281528882848701011115611bb957600080fd5b82828601838301376000928101820192909252909450850135915080821115611be157600080fd5b50611bee85828601611ac0565b9150509250929050565b60008083601f840112611c0a57600080fd5b50813567ffffffffffffffff811115611c2257600080fd5b602083019150836020828501011115611c3a57600080fd5b9250929050565b80356001600160a01b0381168114611c5857600080fd5b919050565b60008060008060608587031215611c7357600080fd5b84359350602085013567ffffffffffffffff811115611c9157600080fd5b611c9d87828801611bf8565b9094509250611cb0905060408601611c41565b905092959194509250565b600060208284031215611ccd57600080fd5b5035919050565b60008083601f840112611ce657600080fd5b50813567ffffffffffffffff811115611cfe57600080fd5b6020830191508360208260051b8501011115611c3a57600080fd5b60008060008060408587031215611d2f57600080fd5b843567ffffffffffffffff80821115611d4757600080fd5b611d5388838901611cd4565b90965094506020870135915080821115611d6c57600080fd5b50611d7987828801611cd4565b95989497509550505050565b600080600060408486031215611d9a57600080fd5b833567ffffffffffffffff811115611db157600080fd5b611dbd86828701611bf8565b9094509250611dd0905060208501611c41565b90509250925092565b60208082526021908201527f4f6e6c792063616c6c61626c65206279206761746577617920636f6e747261636040820152601d60fa1b606082015260800190565b634e487b7160e01b600052603260045260246000fd5b600060208284031215611e4257600080fd5b61021f82611c41565b600060208284031215611e5d57600080fd5b8151801515811461021f57600080fd5b6000600019821415611e8f57634e487b7160e01b600052601160045260246000fd5b5060010190565b60408152826040820152828460608301376000606084830101526000601f19601f8501168201606081016020606085840301818601528186518084526080850191508288019450600093505b80841015611f025784518252938201936001939093019290820190611ee2565b509897505050505050505056fe30644e72e131a029b85045b68181585d2833e84879b9709143e1f593f0000001a2646970667358221220772ae6edb9c6c90f08d3b76599d4c684078e7d17477ae0be9a197c91ba0bc7ce64736f6c63430008090033",
  "linkReferences": {},
  "deployedLinkReferences": {}
}